:020000040800F2
:10000000F006002089010008B31500084914000813
:10001000B115000861030008C518000800000000C1
:100020000000000000000000000000008916000829
:100030006303000800000000B51500088B160008D7
:10004000A3010008A3010008A3010008A301000800
:10005000A3010008A3010008A3010008A3010008F0
:10006000A3010008A3010008A3010008A3010008E0
:10007000A3010008A3010008A3010008A3010008D0
:10008000A3010008A3010008A3010008A3010008C0
:10009000A3010008A3010008A3010008A3010008B0
:1000A000A3010008A3010008A3010008A3010008A0
:1000B000A3010008A301000800000000A30100083C
:1000C000A30100080000000000000000A3010008D8
:1000D00000000000A3010008A301000800000000C8
:1000E000A3010008A3010008A301000800F002F822
:1000F00000F03AF80AA090E8000C82448344AAF188
:100100000107DA4501D100F02FF8AFF2090EBAE885
:100110000F0013F0010F18BFFB1A43F0010318473B
:100120005418000074180000103A24BF78C878C131
:10013000FAD8520724BF30C830C144BF04680C60ED
:10014000704700000023002400250026103A28BF35
:1001500078C1FBD8520728BF30C148BF0B60704739
:100160001FB51FBD10B510BD00F058F81146FFF7C0
:10017000F7FF01F0CFFB00F076F803B4FFF7F2FFD2
:1001800003BC00F07BF8000009488047094800479D
:10019000FEE7FEE7FEE7FEE7FEE7FEE7FEE7FEE737
:1001A000FEE7FEE704480549054A064B7047000094
:1001B00007170008ED000008F0000020F0060020FE
:1001C000F0020020F00200204FF0000200B51346BC
:1001D00094469646203922BFA0E80C50A0E80C5067
:1001E000B1F12001BFF4F7AF090728BFA0E80C5018
:1001F00048BF0CC05DF804EB890028BF40F8042B11
:1002000008BF704748BF20F8022B11F0804F18BF7D
:1002100000F8012B7047704770477047754600F033
:1002200029F8AE4605006946534620F0070085468A
:1002300018B020B5FFF7B6FFBDE820404FF000062C
:100240004FF000074FF000084FF0000B21F00701BE
:10025000AC46ACE8C009ACE8C009ACE8C009ACE801
:10026000C0098D4670470446AFF300802046FFF773
:1002700084FF0000004870478C00002001491820CE
:10028000ABBEFEE7260002007047000070B50446D2
:1002900000688168C943C90717D1816821F001014D
:1002A000816000F0A7FB05460AE000BF00F0A2FB5A
:1002B000401B022804D920688068C043C00706D0CC
:1002C00020688068C043C007F0D0002070BDA06ADD
:1002D00040F01000A062E06A40F00100E0620120FE
:1002E00070BD0000F8B500260446009600688168DD
:1002F000C943C9072DD0816841F0010181601648CA
:1003000016490068B0FBF1F000E0401E00900028A4
:10031000FBD100F06FFB054616E000BF00F06AFB62
:10032000401B022810D920688068C043C0070BD04A
:10033000A06A40F01000A062E06A40F00100E062B4
:1003400084F824600120F8BD20688068C043C0079D
:10035000E4D10020F8BD00001000002040420F0052
:10036000FEE7704772B6FEE710B50021044801F0C1
:1003700021F8BDE810400421014801F01BB800003D
:1003800044000020F8B50024009490F8242025466D
:10039000012A12D0012280F824204A681F23072A4C
:1003A0000DD20668776B521E02EB820293409F4388
:1003B0000B6893401F43776319E00220F8BD06687D
:1003C0000D2A0AD2376BD21F02EB820293409F4361
:1003D0000B6893401F43376309E0F76A0D3A02EB5D
:1003E000820293409F430B6893401F43F7620A6861
:1003F000072306680A2A0AD3F7680A3A02EB420280
:1004000093409F438B6893401F43F76008E0376930
:1004100002EB420293409F438B6893401F43376136
:100420000A68102A01D0112A20D1124B02689A4280
:1004300017D193681B0219D4936843F400039360A7
:100440000968102912D10C490C4A0968B1FBF2F174
:1004500001EB8101490000E0491E00910029FBD118
:1004600004E0816A41F020018162012480F8245077
:100470002046F8BD002401401000002040420F003B
:10048000806A70470068C06C704700002DE9F04139
:100490004FF0000704003D467ED0A06A002628B930
:1004A000E66284F82460204600F07EF82046FFF7DC
:1004B000EDFEA16A01F01001014304D0A06A40F0F2
:1004C0001000A06268E0A16A21F4885141F00201A5
:1004D000A1626268E169237B0A4347EA43010A4358
:1004E000A1684FF48077B94208D0012906D00021D5
:1004F00094F814C0BCF1010F02D00AE03946F7E7C6
:10050000F3B1A36A43F02003A362E36A43F001035B
:10051000E3622368D3F804C02CF4694C4CEA010C64
:10052000C3F804C023689968DFF870C001EA0C01C1
:1005300011439960A168B9420BD0012909D00CE0A0
:10054000DFF85CC0A3690CEB43330B4343F4006159
:10055000DFE7218A0D05A5F580152168CB6A23F414
:1005600070032B43CB62216889680E4B194091427E
:1005700008D1E662A16A21F0020141F00101A16205
:10058000BDE8F081A06A20F0020040F01000A062F7
:10059000E06A40F00100E0620120F1E7FDF7E1FFD1
:1005A00000E0FFFFFE0E1FFF00B585B000210091A7
:1005B00001910291039100680E49884218D10E48BA
:1005C000816941F400718161816901F400710491D4
:1005D000816941F0040181618069694600F004008D
:1005E00004902020009003200190044800F018F9A6
:1005F00005B000BD00240140001002400008014089
:100600002DE9F84300270D460446009700F0F2F963
:10061000804620688168C90508D5A06A40F020009E
:10062000A06284F824700120BDE8F8834168C90500
:1006300003D4C06A10F4700F2AD0022000F06AFAC6
:100640003B490968B1FBF0F62068036939490B4260
:100650004FEA61014FEAA1121FD1C3684FEA611C42
:1006600013EA0C0F19D103690B4225D1C06810425F
:1006700022D1142023E0681C0AD02DB100F0BAF971
:10068000A0EB0800A84203D920680068800725D5A0
:10069000206800688007EED52DE003690B4202D187
:1006A000C168114206D0026923490A4206D1C068D6
:1006B000084203D1542002E0292000E0FC204643F8
:1006C000009816E0681C11D02DB100F093F9A0EB52
:1006D0000800A8420AD90098B04207D2A06A40F0A8
:1006E0000400A06284F8247003209DE70098401C59
:1006F0000090B042E6D321686FF012000860A06A53
:1007000040F40070A06220688068C0F3424007286F
:100710000CD1207B50B9A06A20F48070A062A06A3E
:10072000C00403D4A06A40F00100A06200207BE76F
:1007300010000020244992244992240070B50446F8
:1007400090F8240001280DD0012084F824002046D0
:10075000FFF7C8FD02004FF0000005D084F8240028
:10076000104670BD022070BDA16A40F2012399437A
:1007700041F48071A1621F4D23681F49AB4218D11B
:100780000E6816F4702F14D0A66A46F48016A6627E
:100790000E68760505D5A66A26F4005646F48056FE
:1007A000A662A66AF6040AD5E66A26F00606E6629E
:1007B00006E0A66A26F48016A6625E68E9E7E062B3
:1007C00084F824006FF00200186020688368C3F387
:1007D0004243072B05D1A84208D1096811F4702FB4
:1007E00004D0816841F480118160B9E7816841F4E7
:1007F000A001F9E7002801400424014070B5044637
:1008000000F0F8F80546601C02D004480078044463
:1008100000F0F0F8401BA042FAD370BD04000020A5
:100820002DE9F84FDFF89C91002409F1040A0AF140
:10083000040B23460F270BF1040EBBE00125A54056
:100840002A40AA4276D1DFF880C14E68A6EB0C0898
:1008500066452BD00DDC032E34D005DC36B3012EDB
:1008600019D0022E2FD11BE0112E16D0122E2AD114
:1008700019E0B8F5881F19D006DCB8F5803F15D00F
:10088000B8F5801F1FD111E0B8F5001F0ED0B8F5E4
:10089000041F18D10AE0CB6815E0CB681B1D12E0DD
:1008A000CB6808330FE0CB680C330CE08B682BB1BE
:1008B000012B4FF0080303D0456104E0042302E05C
:1008C000056100E00023FF2A01D8064601E000F19F
:1008D00004064FEA840501D9A5F12005D6F8008069
:1008E00007FA05FC28EA0C0803FA05F548EA0508AA
:1008F000C6F800804D68ED005BD5344DAE6946F01A
:100900000106AE61AD6924F0030605F0010500950E
:100910002F4D06EB050CDCF80850A607360F07FA3A
:1009200006F825EA0805DFF8AC80404503D14FF012
:10093000000810E03DE0DFF8A080404502D14FF014
:10094000010808E0DFF89480404502D14FF002082A
:1009500001E04FF0030808FA06F848EA0508CCF869
:1009600008804D68D9F80060ED034D4601D5164367
:1009700000E096432E604D68DAF80060AD035546FE
:1009800001D5164300E096432E604D68DBF8006009
:10099000ED025D4601D5164300E096432E604D689A
:1009A000DEF80060AD02754601D5164300E09643BF
:1009B0002E60641C0A6832FA04F57FF43FAFBDE88C
:1009C000F88F0000000401400000111000100240E8
:1009D0000000014000080140000C014000100140EF
:1009E0008068084000D0012070470AB1016170475B
:1009F0000904FBE7014880687047000004000020FC
:100A00000248816802781144816070470400002028
:100A1000074810B5016841F010010160032000F0A3
:100A200067F80F2000F006F800F024F8002010BD51
:100A30000020024070B50D4D04464FF47A712878BD
:100A4000B1FBF0F00A490968B1FBF0F000F0A8FB37
:100A500048B9102C07D200222146501E00F028F879
:100A600000206C6070BD012070BD000004000020FB
:100A7000100000200C4808B5816941F00101816136
:100A8000816901F001010091C16941F08051C161AA
:100A9000C06900F0805000900448416821F0E06196
:100AA00041F00071416008BD0010024000000140AB
:100AB000F0B40E4B1B680C46C3F30223C3F10705C9
:100AC000042D00D90425191D072901D2002300E0B7
:100AD000DB1E012606FA05F1491E214099409E4081
:100AE000761E16403143F0BC00F0EDBE0CED00E088
:100AF000064900F0070208684FF6FF03184040EA75
:100B00000220034A10430860704700000CED00E02B
:100B10000000FA0510B529A401461DCC86B08DE869
:100B20001D002AA02A4C006804900020012923D02F
:100B300002293AD010291DD161682268D20119D545
:100B4000C1F38342C9031DF8020009D5616804AAF4
:100B5000C1F34041515C1F4AB2FBF1F1484301E04F
:100B60001D4948436168490204D440005FF0030115
:100B7000B0FBF1F006B010BD226AC2F301210129D9
:100B800003D1920701D5C803F4E7022905D1626AAF
:100B9000920702D549F64040ECE70329EAD12168E3
:100BA0008903E7D54FF22440E4E700F023F96168B8
:100BB000C1F38131491C4900DAE700000203040552
:100BC000060708090A0B0C0D0E0F10100102000099
:100BD0000010024000127A0000093D002DE9F843A0
:100BE00005460078354CC00754D0E0690026C000A7
:100BF00008D4E06940F08050E061E069012600F02F
:100C0000805000902E480168C90512D401688046C2
:100C100041F480710160FFF7EDFE074605E000BF7B
:100C2000FFF7E8FEC01B642823D8D8F80000C005F1
:100C3000F6D5206A10F4407021D0A98801F44071E3
:100C400081421CD0206A1F49012220F440700A60B2
:100C500000220A602062C00711D0FFF7CBFE0746D2
:100C600041F2883808E000BFFFF7C4FEC11B4145D0
:100C700002D90320BDE8F883206A8007F4D5206AF2
:100C8000696820F44070084320621EB1E06920F0DA
:100C90008050E0612878800705D56068A96820F455
:100CA0004040084360602878C00605D56068E96860
:100CB00020F48000084360600020DBE70010024061
:100CC00000700040400442422DE9F0470F46050005
:100CD00061D0434E306800F00700B84209D2306856
:100CE00020F0070038433060306800F00700B84259
:100CF00051D128683B4C810712D5400703D5606865
:100D000040F4E06060602878000703D5606840F434
:100D1000605060606068A96820F0F000084360607F
:100D20002878C00728D06868012810D021680228D8
:100D300010D0890700292EDA616821F003010143F0
:100D40006160FFF757FE804641F288390DE0216867
:100D50008903EFE78901EDE7FFF74CFEA0EB0801FF
:100D6000494502D90320BDE8F0876068696800F052
:100D70000C00B0EB810FEFD1306800F00700B842F3
:100D80000BD9306820F0070038433060306800F03D
:100D90000700B84201D00120E5E72878400705D5D3
:100DA0006068E96820F4E060084360602878000724
:100DB00006D56068296920F4605040EAC10060608F
:100DC00000F028F86168084AC1F30311515CC8407B
:100DD0000649086006480068FFF72CFE0020C2E7BD
:100DE00000200240001002405C19000810000020A2
:100DF000080000200448054900684968044AC1F316
:100E0000C221515CC8407047100000200010024011
:100E10006C19000812A185B00FC98DE80F0014A04D
:100E2000144A006804905168134801F00C03042B25
:100E300010D0082B0ED1C1F38343C9031DF8030062
:100E40000AD5516804AAC1F34041515C0A4A504393
:100E5000B0FBF1F005B0704708494843FAE70000DD
:100E600002030405060708090A0B0C0D0E0F1010EB
:100E7000010200000010024000127A0000093D004B
:100E80002DE9F84F040070D02078C04DC00749D03C
:100E90006868C0F38100012807D06868C0F381004A
:100EA000022809D16868C00306D52868800339D5AF
:100EB00060680028E7D035E06068B0F5803F0BD06F
:100EC00010B1B0F5A02F11D0286820F48030286030
:100ED000286820F4802002E0286840F480302860F0
:100EE000606890B1FFF786FD06460AE0286840F486
:100EF00080202860F0E700BFFFF77CFD801B64289E
:100F000073D828688003F7D50CE0FFF773FD064619
:100F100005E000BFFFF76EFD801B6428F0D828684D
:100F20008003F7D420789A4E80074FF001094FF0E4
:100F3000000839D5686810F00C0F07D06868C0F356
:100F40008100022809D16868C00306D42868800798
:100F500014D52069012808D110E02069B0B1C6F885
:100F60000090FFF747FD074605E00AE1FFF742FD65
:100F7000C01B0228C4D828688007F7D52868616993
:100F800020F0F80040EAC10028600DE0C6F80080BB
:100F9000FFF730FD074604E0FFF72CFDC01B0228D9
:100FA00023D828688007F7D4207800072CD5794803
:100FB000A169D9B1C0F80090FFF71CFD074604E015
:100FC000FFF718FDC01B02280FD8686A8007F7D505
:100FD00071484FF4FA510068B0FBF1F0009000BF87
:100FE0000098411E0091FAD20EE080E0C0F8008027
:100FF000FFF700FD074604E0FFF7FCFCC01B0228DA
:1010000075D8686A8007F7D42078400760D5E8690A
:101010000027C00008D4E86940F08050E861E86922
:10102000012700F0805000905C480168C90513D486
:101030000168834641F480710160FFF7DBFC824662
:1010400006E000BFFFF7D6FCA0EB0A0064284ED8EC
:10105000DBF80000C005F5D5E06801280AD008B12A
:10106000052813D0286A20F001002862286A20F0A1
:10107000040002E0286A40F001002862E06841F2C2
:10108000883B98B1FFF7B6FC82460BE0286A40F037
:1010900004002862EEE700BFFFF7ACFCA0EB0A01FA
:1010A00059455AD8286A8007F6D50CE0FFF7A2FC0C
:1010B000824605E0FFF79EFCA0EB0A0159454CD89B
:1010C000286A8007F6D41FB1E86920F08050E861F3
:1010D000E06988B36968C1F38101022944D002281C
:1010E000C6F8608004D0FFF785FC044638E034E0A1
:1010F000FFF780FC074604E0FFF77CFCC01B0228DA
:101100002BD828688001F7D4206AB0F5803F05D13C
:101110006868A16820F4003008436860D4E90801D9
:101120000843696821F4741108436860C6F8609048
:10113000FFF760FC044606E025E000BFFFF75AFC1D
:10114000001B022809D828688001F7D51BE000BFE2
:10115000FFF750FC001B022802D90320BDE8F88FDE
:1011600028688001F4D40EE00128F7D06868226A6C
:1011700000F48031914204D1616A00F47010884219
:1011800001D00120EAE70020E8E70000001002405B
:1011900000004242800442421000002000700040E3
:1011A00010B5401EB0F1807F01D3012010BD4FF07B
:1011B000E02460610F21601700F085FB0020A06132
:1011C00007202061002010BD70B590F83C20012A56
:1011D00023D0012480F83C40022280F83D2003689F
:1011E0005A689D6822F070060A6832435A600C4BB8
:1011F00002689A4205D0B2F1804F02D0094B9A4260
:1012000004D1496825F080031943916080F83D407E
:10121000002180F83C10084670BD022070BD00001F
:10122000002C01400004004000B585B00021009171
:101230000191029103910068B0F1804F11D10A48E9
:10124000816941F0040181618069694600F0040010
:101250000490032000900220019003900348FFF7C0
:10126000DFFA05B000BD0000001002400008014098
:1012700070B5044690F83C000D4601280AD00120C4
:1012800084F83C0042B1042A18D0082A2AD00C2A3B
:101290004DD139E0022070BD206800F071FA20685D
:1012A000816941F0080181612068816921F00401B0
:1012B0008161206881692A69114311E0206800F08A
:1012C00087FA2068816941F4006181612068816941
:1012D00021F480618161206881692A6941EA0221E3
:1012E000816124E0206800F09FFA2068C16941F024
:1012F0000801C1612068C16921F00401C161206851
:10130000C1692A69114311E0206800F0B9FA206828
:10131000C16941F40061C1612068C16921F4806143
:10132000C1612068C1692A6941EA0221C1610020C6
:1013300084F83C0070BD10B5040003D094F83D0063
:1013400010B107E0012010BD002084F83C002046C9
:1013500000F01EF8022084F83D00211D206800F0F6
:10136000D3F9012084F8460084F83E0084F83F0059
:1013700084F8400084F8410084F8420084F8430077
:1013800084F8440084F8450084F83D00002010BD36
:1013900008B50068B0F1804F08D10548C16941F037
:1013A0000101C161C06900F00100009008BD0000AA
:1013B0000010024010B50446022249B104290ED0A3
:1013C000082913D094F84100012816D0012010BD3F
:1013D00094F83E000128F9D184F83E200FE094F8FB
:1013E0003F000128F2D184F83F2008E094F8400043
:1013F0000128EBD184F8402001E084F8412001224B
:10140000206800F0AFF90E492068884203D1426C91
:1014100042F4004242642068884205D0B0F1804F17
:1014200002D00849884204D1816801F007010629E9
:1014300003D0016841F001010160002010BD0000EF
:10144000002C014000040040FEE700003EB50024EF
:1014500011480094019402940E4984600160047361
:101460000475012505614FF460214460C161FFF7F7
:101470000DF808B1FEF776FF0520CDE900056946B5
:1014800002940548FEF77EFF002801D0FEF76AFFB0
:101490003EBD0000002401401400002030B585B09E
:1014A000002420480094019402940394816941F03F
:1014B00020018161816901F020010491816941F07D
:1014C00004018161816901F004010491816941F0A5
:1014D000080181618069144D00F008000490002229
:1014E0004C212846FFF781FA4C2000900120CDE9DD
:1014F00001040220039069462846FFF791F9681518
:10150000CDE90004694628460294FFF789F91820BE
:10151000CDE90004694605480294FFF781F905B05A
:1015200030BD00000010024000080140000C0140E6
:1015300010B58AB0002407941C2168460894FEF771
:1015400043FE1A484FF08041016040F2CF21C0E9CC
:10155000011440F2CF71C0E903148461FFF7EBFE80
:1015600008B1FEF7FFFE079407A910480894FFF79B
:101570002BFE08B1FEF7F6FE6020CDE900040294D0
:101580000022694609480494FFF772FE08B1FEF78D
:10159000E9FE042269460548FFF76AFE08B1FEF736
:1015A000E1FE0248FFF740FE0AB010BD44000020F3
:1015B000FEE7FEE7704700002DE9F0412F4E0821BD
:1015C0003046FFF70DFA28B3002410213046FFF70C
:1015D00007FA012800D000200442294C294D4FF47D
:1015E0007A7711D0216824208863C820FFF706F994
:1015F000002204212846FFF7F8F901220821284695
:10160000FFF7F3F92068476310213046FFF7E8F948
:1016100010B113E00124D8E7216888208863C8202E
:10162000FFF7ECF8002204212846FFF7DEF901223B
:1016300008212846FFF7D9F920684763102137466B
:101640003046FFF7CDF9064608213846FFF7C8F9BE
:101650000640012E0FD12168562088630122042103
:101660002846FFF7C2F9012208212846FFF7BDF9F5
:10167000216800204863BDE8F0810000000C0140B3
:1016800044000020000801407047FFF7B9B930B5A9
:1016900093B028216846FEF797FD14210AA8FEF7AB
:1016A00093FD002501200F951095119501041295C9
:1016B0008DE8230004904FF4E010CDE908100224D7
:1016C00007946846FFF7DCFB08B172B6FEE70AA98B
:1016D0000F2081E831004FF48060CDE90D05022133
:1016E0000AA8FFF7F1FA08B172B6FEE74FF400401E
:1016F00011900F940FA8FFF771FA002801D072B66D
:10170000FEE713B030BD704770B50268134B144C40
:101710004FF08046984203D0B04201D0A04203D19E
:1017200022F070054A682A43984203D0B04201D0A3
:10173000A04203D122F44074CA6822434C6922F0CB
:101740008002224302608A68C2620A68826298420A
:1017500001D1096901630121416170BD002C014083
:101760000004004010B501F01F030121046A9940F4
:101770008C430462016A9A401143016210BD00006B
:1017800030B5026A22F001020262026A436884698B
:1017900024F073050C682C4322F002058A682A4362
:1017A0000A4DA8420BD122F00805CA6823F4407301
:1017B0002A434D6922F004021D438B692B43436089
:1017C000846149684163026230BD0000002C014021
:1017D00030B5026A22F010020262026A436884692C
:1017E0000D6824F4E64444EA05248D6822F02002C2
:1017F00042EA05120B4DA8420ED1CD6822F08002BC
:1018000042EA05124D6923F4406343EA85038D697A
:1018100022F0400243EA85034360846149688163A2
:10182000026230BD002C014030B5026A22F48072A1
:101830000262036A4268C46923F4007324F07305EA
:101840000C682C438D6843EA05230C4DA8420ED149
:10185000CD6823F4006343EA05234D6922F4405226
:1018600042EA05128D6923F4806342EA0512426060
:10187000C4614968C163036230BD0000002C0140AF
:1018800030B5026A22F480520262046A4268C36977
:101890000D6823F4E64343EA05238D6824F40054DD
:1018A00044EA0534064DA84204D14D6922F4804231
:1018B00042EA85124260C36149680164046230BD36
:1018C000002C0140FEE70907090E002804DB00F1A7
:1018D000E02080F80014704700F00F0000F1E020D5
:1018E00080F8141D7047000010B50948FEF726FF68
:1018F00064210748FEF784FE0548FEF7C1FD800518
:1019000004D50348FEF7BEFD80B210BD002010BD17
:1019100014000020FFF77CF8FFF7B9FEFFF7BEFDCB
:10192000FFF706FEFFF792FDFEF71EFD094C4FF490
:101930007A76094DFFF740FEFFF7D6FF2080B042D0
:1019400001D2012200E0002240212846FFF74DF895
:10195000F0E7000000000020000801400000000047
:10196000000000000102030406070809000000004F
:101970000102030494190008000000201400000074
:1019800028010008A819000814000020DC06000047
:1019900044010008000000000100000010000000E9
:0819A000000000000024F40027
:04000005080000ED02
:00000001FF
